{
  "contractName": "UniversityData",
  "abi": [
    {
      "inputs": [],
      "stateMutability": "nonpayable",
      "type": "constructor"
    },
    {
      "anonymous": false,
      "inputs": [
        {
          "indexed": false,
          "internalType": "string",
          "name": "message",
          "type": "string"
        }
      ],
      "name": "ErrorLog",
      "type": "event"
    },
    {
      "anonymous": false,
      "inputs": [
        {
          "indexed": true,
          "internalType": "uint256",
          "name": "studentId",
          "type": "uint256"
        }
      ],
      "name": "StudentAdded",
      "type": "event"
    },
    {
      "anonymous": false,
      "inputs": [
        {
          "indexed": true,
          "internalType": "uint256",
          "name": "studentId",
          "type": "uint256"
        }
      ],
      "name": "StudentUpdated",
      "type": "event"
    },
    {
      "inputs": [
        {
          "internalType": "uint256",
          "name": "_studentId",
          "type": "uint256"
        },
        {
          "internalType": "string",
          "name": "_name",
          "type": "string"
        },
        {
          "internalType": "string",
          "name": "_programme",
          "type": "string"
        },
        {
          "internalType": "uint256",
          "name": "_joinYear",
          "type": "uint256"
        },
        {
          "internalType": "uint256",
          "name": "_cgpa",
          "type": "uint256"
        },
        {
          "internalType": "uint256",
          "name": "_graduateYear",
          "type": "uint256"
        }
      ],
      "name": "addOrUpdateStudent",
      "outputs": [],
      "stateMutability": "nonpayable",
      "type": "function"
    },
    {
      "inputs": [
        {
          "internalType": "uint256",
          "name": "studentId",
          "type": "uint256"
        }
      ],
      "name": "getStudent",
      "outputs": [
        {
          "components": [
            {
              "internalType": "uint256",
              "name": "studentId",
              "type": "uint256"
            },
            {
              "internalType": "string",
              "name": "name",
              "type": "string"
            },
            {
              "internalType": "string",
              "name": "programme",
              "type": "string"
            },
            {
              "internalType": "uint256",
              "name": "joinYear",
              "type": "uint256"
            },
            {
              "internalType": "uint256",
              "name": "cgpa",
              "type": "uint256"
            },
            {
              "internalType": "uint256",
              "name": "graduateYear",
              "type": "uint256"
            }
          ],
          "internalType": "struct UniversityData.Student",
          "name": "",
          "type": "tuple"
        }
      ],
      "stateMutability": "view",
      "type": "function"
    },
    {
      "inputs": [
        {
          "internalType": "uint256",
          "name": "studentId",
          "type": "uint256"
        }
      ],
      "name": "getStudentDataHash",
      "outputs": [
        {
          "internalType": "bytes32",
          "name": "",
          "type": "bytes32"
        }
      ],
      "stateMutability": "view",
      "type": "function"
    }
  ],
  "bytecode": "0x608060405234801561001057600080fd5b50610c84806100206000396000f3fe608060405234801561001057600080fd5b50600436106100415760003560e01c80630d48e8b914610046578063481f89c814610062578063642f916314610092575b600080fd5b610060600480360381019061005b91906106db565b6100c2565b005b61007c600480360381019061007791906106b2565b610302565b60405161008991906109f3565b60405180910390f35b6100ac60048036038101906100a791906106b2565b610362565b6040516100b99190610a4e565b60405180910390f35b6000861415610106576040517f08c379a00000000000000000000000000000000000000000000000000000000081526004016100fd90610a0e565b60405180910390fd5b61019082111561014b576040517f08c379a000000000000000000000000000000000000000000000000000000000815260040161014290610a2e565b60405180910390fd5b6040518060c00160405280878152602001868152602001858152602001848152602001838152602001828152506000808881526020019081526020016000206000820151816000015560208201518160010190805190602001906101b092919061051e565b5060408201518160020190805190602001906101cd92919061051e565b50606082015181600301556080820151816004015560a082015181600501559050506000600287878787878760405160200161020e9695949392919061098b565b60405160208183030381529060405260405161022a9190610974565b602060405180830381855afa158015610247573d6000803e3d6000fd5b5050506040513d601f19601f8201168201806040525081019061026a9190610689565b90508060016000898152602001908152602001600020819055506000831480156102945750600082145b156102cb57867f7b244afbade88f14ffe00252804b1465253195836e50dede3f68c1c7996ba5b760405160405180910390a26102f9565b867f397195550455bf5b0b61aa963bd6087f54f7281f81967d93cc1b9215f4f1dc7a60405160405180910390a25b50505050505050565b600080821415610347576040517f08c379a000000000000000000000000000000000000000000000000000000000815260040161033e90610a0e565b60405180910390fd5b60016000838152602001908152602001600020549050919050565b61036a6105a4565b60008214156103ae576040517f08c379a00000000000000000000000000000000000000000000000000000000081526004016103a590610a0e565b60405180910390fd5b6000808381526020019081526020016000206040518060c0016040529081600082015481526020016001820180546103e590610b75565b80601f016020809104026020016040519081016040528092919081815260200182805461041190610b75565b801561045e5780601f106104335761010080835404028352916020019161045e565b820191906000526020600020905b81548152906001019060200180831161044157829003601f168201915b5050505050815260200160028201805461047790610b75565b80601f01602080910402602001604051908101604052809291908181526020018280546104a390610b75565b80156104f05780601f106104c5576101008083540402835291602001916104f0565b820191906000526020600020905b8154815290600101906020018083116104d357829003601f168201915b5050505050815260200160038201548152602001600482015481526020016005820154815250509050919050565b82805461052a90610b75565b90600052602060002090601f01602090048101928261054c5760008555610593565b82601f1061056557805160ff1916838001178555610593565b82800160010185558215610593579182015b82811115610592578251825591602001919060010190610577565b5b5090506105a091906105da565b5090565b6040518060c001604052806000815260200160608152602001606081526020016000815260200160008152602001600081525090565b5b808211156105f35760008160009055506001016105db565b5090565b600061060a61060584610aa1565b610a70565b90508281526020810184848401111561062257600080fd5b61062d848285610b33565b509392505050565b60008151905061064481610c20565b92915050565b600082601f83011261065b57600080fd5b813561066b8482602086016105f7565b91505092915050565b60008135905061068381610c37565b92915050565b60006020828403121561069b57600080fd5b60006106a984828501610635565b91505092915050565b6000602082840312156106c457600080fd5b60006106d284828501610674565b91505092915050565b60008060008060008060c087890312156106f457600080fd5b600061070289828a01610674565b965050602087013567ffffffffffffffff81111561071f57600080fd5b61072b89828a0161064a565b955050604087013567ffffffffffffffff81111561074857600080fd5b61075489828a0161064a565b945050606061076589828a01610674565b935050608061077689828a01610674565b92505060a061078789828a01610674565b9150509295509295509295565b61079d81610b1f565b82525050565b60006107ae82610ad1565b6107b88185610ae7565b93506107c8818560208601610b42565b80840191505092915050565b60006107df82610adc565b6107e98185610af2565b93506107f9818560208601610b42565b61080281610c0f565b840191505092915050565b600061081882610adc565b6108228185610b14565b9350610832818560208601610b42565b80840191505092915050565b600061084b601283610b03565b91507f496e76616c69642053747564656e7420494400000000000000000000000000006000830152602082019050919050565b600061088b600c83610b03565b91507f496e76616c6964204347504100000000000000000000000000000000000000006000830152602082019050919050565b600060c0830160008301516108d6600086018261094e565b50602083015184820360208601526108ee82826107d4565b9150506040830151848203604086015261090882826107d4565b915050606083015161091d606086018261094e565b506080830151610930608086018261094e565b5060a083015161094360a086018261094e565b508091505092915050565b61095781610b29565b82525050565b61096e61096982610b29565b610ba7565b82525050565b600061098082846107a3565b915081905092915050565b6000610997828961095d565b6020820191506109a7828861080d565b91506109b3828761080d565b91506109bf828661095d565b6020820191506109cf828561095d565b6020820191506109df828461095d565b602082019150819050979650505050505050565b6000602082019050610a086000830184610794565b92915050565b60006020820190508181036000830152610a278161083e565b9050919050565b60006020820190508181036000830152610a478161087e565b9050919050565b60006020820190508181036000830152610a6881846108be565b905092915050565b6000604051905081810181811067ffffffffffffffff82111715610a9757610a96610be0565b5b8060405250919050565b600067ffffffffffffffff821115610abc57610abb610be0565b5b601f19601f8301169050602081019050919050565b600081519050919050565b600081519050919050565b600081905092915050565b600082825260208201905092915050565b600082825260208201905092915050565b600081905092915050565b6000819050919050565b6000819050919050565b82818337600083830152505050565b60005b83811015610b60578082015181840152602081019050610b45565b83811115610b6f576000848401525b50505050565b60006002820490506001821680610b8d57607f821691505b60208210811415610ba157610ba0610bb1565b5b50919050565b6000819050919050565b7f4e487b7100000000000000000000000000000000000000000000000000000000600052602260045260246000fd5b7f4e487b7100000000000000000000000000000000000000000000000000000000600052604160045260246000fd5b6000601f19601f8301169050919050565b610c2981610b1f565b8114610c3457600080fd5b50565b610c4081610b29565b8114610c4b57600080fd5b5056fea2646970667358221220546855b727f0f12bbf0e1c8e88902ee537d87173f9df543a9a4b8bc2e10c670f64736f6c63430008000033",
  "immutableReferences": {},
  "source": "// SPDX-License-Identifier: MIT\r\npragma solidity ^0.8.0;\r\n\r\ncontract UniversityData {\r\n    struct Student {\r\n        uint256 studentId;\r\n        string name;\r\n        string programme;\r\n        uint256 joinYear;\r\n        uint256 cgpa;       // Stored as integer, e.g., 350 for 3.50\r\n        uint256 graduateYear;\r\n    }\r\n\r\n    mapping(uint256 => Student) private students;\r\n    // Mapping for hashes to ensure data integrity\r\n    mapping(uint256 => bytes32) private studentDataHashes;\r\n\r\n    // Event declarations\r\n    event StudentAdded(uint256 indexed studentId);\r\n    event StudentUpdated(uint256 indexed studentId);\r\n    event ErrorLog(string message);\r\n\r\n    // Constructor for any initial setup\r\n    constructor() {\r\n        // Initialization (if needed)\r\n    }\r\n\r\n    // Function to add or update student data\r\n    function addOrUpdateStudent(uint256 _studentId, string memory _name, string memory _programme, uint256 _joinYear, uint256 _cgpa, uint256 _graduateYear) public {\r\n        require(_studentId != 0, \"Invalid Student ID\");\r\n        require(_cgpa <= 400, \"Invalid CGPA\");\r\n\r\n        students[_studentId] = Student(_studentId, _name, _programme, _joinYear, _cgpa, _graduateYear);\r\n        bytes32 dataHash = sha256(abi.encodePacked(_studentId, _name, _programme, _joinYear, _cgpa, _graduateYear));\r\n        studentDataHashes[_studentId] = dataHash;\r\n\r\n        if (_cgpa == 0 && _graduateYear == 0) {\r\n            emit StudentAdded(_studentId);\r\n        } else {\r\n            emit StudentUpdated(_studentId);\r\n        }\r\n    }\r\n\r\n    // Getter function to retrieve student details\r\n    function getStudent(uint256 studentId) public view returns (Student memory) {\r\n        require(studentId != 0, \"Invalid Student ID\");\r\n        return students[studentId];\r\n    }\r\n\r\n    // Function to get the hash of student data for verification\r\n    function getStudentDataHash(uint256 studentId) public view returns (bytes32) {\r\n        require(studentId != 0, \"Invalid Student ID\");\r\n        return studentDataHashes[studentId];\r\n    }\r\n\r\n    // Additional functions and logic as needed...\r\n}\r\n",
  "sourcePath": "C:\\Users\\verik\\OneDrive\\Documents\\GitHub\\FYP\\contracts\\UniversityData.sol",
  "compiler": {
    "name": "solc",
    "version": "0.8.0+commit.c7dfd78e.Emscripten.clang"
  },
  "schemaVersion": "3.4.16",
  "updatedAt": "2023-12-14T12:03:01.141Z",
  "devdoc": {
    "kind": "dev",
    "methods": {},
    "version": 1
  },
  "userdoc": {
    "kind": "user",
    "methods": {},
    "version": 1
  }
}